{
  "contractName": "StorageHealthRecords",
  "abi": [
    {
      "anonymous": false,
      "inputs": [
        {
          "indexed": true,
          "internalType": "address",
          "name": "patient",
          "type": "address"
        },
        {
          "indexed": true,
          "internalType": "address",
          "name": "doctor",
          "type": "address"
        },
        {
          "indexed": false,
          "internalType": "bool",
          "name": "canCreate",
          "type": "bool"
        },
        {
          "indexed": false,
          "internalType": "bool",
          "name": "canRead",
          "type": "bool"
        },
        {
          "indexed": false,
          "internalType": "bool",
          "name": "canUpdate",
          "type": "bool"
        },
        {
          "indexed": false,
          "internalType": "bool",
          "name": "canDelete",
          "type": "bool"
        }
      ],
      "name": "AccessApproved",
      "type": "event"
    },
    {
      "anonymous": false,
      "inputs": [
        {
          "indexed": true,
          "internalType": "address",
          "name": "patient",
          "type": "address"
        },
        {
          "indexed": true,
          "internalType": "address",
          "name": "doctor",
          "type": "address"
        }
      ],
      "name": "AccessDenied",
      "type": "event"
    },
    {
      "anonymous": false,
      "inputs": [
        {
          "indexed": true,
          "internalType": "address",
          "name": "patient",
          "type": "address"
        },
        {
          "indexed": true,
          "internalType": "address",
          "name": "doctor",
          "type": "address"
        },
        {
          "indexed": false,
          "internalType": "bool",
          "name": "canCreate",
          "type": "bool"
        },
        {
          "indexed": false,
          "internalType": "bool",
          "name": "canRead",
          "type": "bool"
        },
        {
          "indexed": false,
          "internalType": "bool",
          "name": "canUpdate",
          "type": "bool"
        },
        {
          "indexed": false,
          "internalType": "bool",
          "name": "canDelete",
          "type": "bool"
        }
      ],
      "name": "AccessRequested",
      "type": "event"
    },
    {
      "anonymous": false,
      "inputs": [
        {
          "indexed": true,
          "internalType": "address",
          "name": "doctor",
          "type": "address"
        }
      ],
      "name": "DoctorRegistered",
      "type": "event"
    },
    {
      "anonymous": false,
      "inputs": [
        {
          "indexed": true,
          "internalType": "address",
          "name": "patient",
          "type": "address"
        },
        {
          "indexed": false,
          "internalType": "string",
          "name": "recordId",
          "type": "string"
        }
      ],
      "name": "HealthRecordCreated",
      "type": "event"
    },
    {
      "anonymous": false,
      "inputs": [
        {
          "indexed": true,
          "internalType": "address",
          "name": "patient",
          "type": "address"
        },
        {
          "indexed": false,
          "internalType": "string",
          "name": "recordId",
          "type": "string"
        }
      ],
      "name": "HealthRecordDeleted",
      "type": "event"
    },
    {
      "anonymous": false,
      "inputs": [
        {
          "indexed": true,
          "internalType": "address",
          "name": "patient",
          "type": "address"
        },
        {
          "indexed": false,
          "internalType": "string",
          "name": "recordId",
          "type": "string"
        }
      ],
      "name": "HealthRecordRevertDeleted",
      "type": "event"
    },
    {
      "anonymous": false,
      "inputs": [
        {
          "indexed": true,
          "internalType": "address",
          "name": "patient",
          "type": "address"
        },
        {
          "indexed": false,
          "internalType": "string",
          "name": "recordId",
          "type": "string"
        }
      ],
      "name": "HealthRecordUpdated",
      "type": "event"
    },
    {
      "anonymous": false,
      "inputs": [
        {
          "indexed": true,
          "internalType": "address",
          "name": "patient",
          "type": "address"
        }
      ],
      "name": "PatientRegistered",
      "type": "event"
    },
    {
      "anonymous": false,
      "inputs": [
        {
          "indexed": true,
          "internalType": "address",
          "name": "creator",
          "type": "address"
        },
        {
          "indexed": false,
          "internalType": "string",
          "name": "message",
          "type": "string"
        }
      ],
      "name": "SendTest",
      "type": "event"
    },
    {
      "inputs": [
        {
          "internalType": "address",
          "name": "senderAddress",
          "type": "address"
        },
        {
          "internalType": "string",
          "name": "name",
          "type": "string"
        },
        {
          "internalType": "string",
          "name": "birthDate",
          "type": "string"
        },
        {
          "internalType": "string",
          "name": "homeAddress",
          "type": "string"
        },
        {
          "internalType": "string",
          "name": "aesKey",
          "type": "string"
        },
        {
          "internalType": "string",
          "name": "passKey",
          "type": "string"
        },
        {
          "internalType": "string",
          "name": "role",
          "type": "string"
        }
      ],
      "name": "registerUser",
      "outputs": [],
      "stateMutability": "nonpayable",
      "type": "function"
    },
    {
      "inputs": [
        {
          "internalType": "address",
          "name": "addressUser",
          "type": "address"
        }
      ],
      "name": "checkIsUserRegistered",
      "outputs": [
        {
          "internalType": "bool",
          "name": "",
          "type": "bool"
        }
      ],
      "stateMutability": "view",
      "type": "function"
    },
    {
      "inputs": [
        {
          "internalType": "address",
          "name": "userAddress",
          "type": "address"
        }
      ],
      "name": "getUser",
      "outputs": [
        {
          "components": [
            {
              "internalType": "string",
              "name": "name",
              "type": "string"
            },
            {
              "internalType": "string",
              "name": "birthDate",
              "type": "string"
            },
            {
              "internalType": "string",
              "name": "homeAddress",
              "type": "string"
            },
            {
              "internalType": "string",
              "name": "aesKey",
              "type": "string"
            },
            {
              "internalType": "string",
              "name": "passKey",
              "type": "string"
            },
            {
              "internalType": "string",
              "name": "role",
              "type": "string"
            },
            {
              "internalType": "address",
              "name": "ethAddress",
              "type": "address"
            }
          ],
          "internalType": "struct StorageHealthRecords.User",
          "name": "",
          "type": "tuple"
        }
      ],
      "stateMutability": "view",
      "type": "function"
    },
    {
      "inputs": [],
      "name": "getAllRegisteredPatients",
      "outputs": [
        {
          "internalType": "address[]",
          "name": "",
          "type": "address[]"
        }
      ],
      "stateMutability": "view",
      "type": "function"
    },
    {
      "inputs": [],
      "name": "getAllRegisteredDoctors",
      "outputs": [
        {
          "internalType": "address[]",
          "name": "",
          "type": "address[]"
        }
      ],
      "stateMutability": "view",
      "type": "function"
    },
    {
      "inputs": [
        {
          "internalType": "address",
          "name": "patientAddress",
          "type": "address"
        },
        {
          "internalType": "address",
          "name": "senderAddress",
          "type": "address"
        }
      ],
      "name": "getPatientDetails",
      "outputs": [
        {
          "internalType": "string",
          "name": "name",
          "type": "string"
        },
        {
          "internalType": "string",
          "name": "birthDate",
          "type": "string"
        },
        {
          "internalType": "string",
          "name": "homeAddress",
          "type": "string"
        },
        {
          "internalType": "string",
          "name": "aesKey",
          "type": "string"
        },
        {
          "internalType": "string",
          "name": "role",
          "type": "string"
        },
        {
          "internalType": "address[]",
          "name": "doctorsApproved",
          "type": "address[]"
        },
        {
          "internalType": "address[]",
          "name": "doctorsPending",
          "type": "address[]"
        },
        {
          "components": [
            {
              "internalType": "string",
              "name": "id",
              "type": "string"
            },
            {
              "internalType": "address",
              "name": "creatorAddress",
              "type": "address"
            },
            {
              "internalType": "string",
              "name": "description",
              "type": "string"
            },
            {
              "internalType": "string",
              "name": "cid",
              "type": "string"
            },
            {
              "internalType": "string",
              "name": "recordType",
              "type": "string"
            },
            {
              "internalType": "string",
              "name": "createdAt",
              "type": "string"
            },
            {
              "internalType": "bool",
              "name": "isActive",
              "type": "bool"
            },
            {
              "internalType": "uint256",
              "name": "version",
              "type": "uint256"
            },
            {
              "internalType": "string",
              "name": "previousId",
              "type": "string"
            }
          ],
          "internalType": "struct StorageHealthRecords.HealthRecord[]",
          "name": "healthRecords",
          "type": "tuple[]"
        },
        {
          "components": [
            {
              "internalType": "string",
              "name": "id",
              "type": "string"
            },
            {
              "internalType": "address",
              "name": "creatorAddress",
              "type": "address"
            },
            {
              "internalType": "string",
              "name": "description",
              "type": "string"
            },
            {
              "internalType": "string",
              "name": "cid",
              "type": "string"
            },
            {
              "internalType": "string",
              "name": "recordType",
              "type": "string"
            },
            {
              "internalType": "string",
              "name": "createdAt",
              "type": "string"
            },
            {
              "internalType": "bool",
              "name": "isActive",
              "type": "bool"
            },
            {
              "internalType": "uint256",
              "name": "version",
              "type": "uint256"
            },
            {
              "internalType": "string",
              "name": "previousId",
              "type": "string"
            }
          ],
          "internalType": "struct StorageHealthRecords.HealthRecord[]",
          "name": "oldHealthRecords",
          "type": "tuple[]"
        }
      ],
      "stateMutability": "view",
      "type": "function"
    },
    {
      "inputs": [
        {
          "internalType": "address",
          "name": "doctorAddress",
          "type": "address"
        }
      ],
      "name": "getDoctorDetails",
      "outputs": [
        {
          "internalType": "string",
          "name": "name",
          "type": "string"
        },
        {
          "internalType": "string",
          "name": "birthDate",
          "type": "string"
        },
        {
          "internalType": "string",
          "name": "homeAddress",
          "type": "string"
        },
        {
          "internalType": "string",
          "name": "aesKey",
          "type": "string"
        },
        {
          "internalType": "string",
          "name": "role",
          "type": "string"
        },
        {
          "internalType": "address[]",
          "name": "patientsApproved",
          "type": "address[]"
        },
        {
          "internalType": "address[]",
          "name": "patientsPending",
          "type": "address[]"
        }
      ],
      "stateMutability": "view",
      "type": "function"
    },
    {
      "inputs": [
        {
          "internalType": "address",
          "name": "senderAddress",
          "type": "address"
        },
        {
          "internalType": "address",
          "name": "patientAddress",
          "type": "address"
        },
        {
          "internalType": "string",
          "name": "newRecordId",
          "type": "string"
        },
        {
          "internalType": "string",
          "name": "description",
          "type": "string"
        },
        {
          "internalType": "string",
          "name": "cid",
          "type": "string"
        },
        {
          "internalType": "string",
          "name": "recordType",
          "type": "string"
        },
        {
          "internalType": "string",
          "name": "createdAt",
          "type": "string"
        }
      ],
      "name": "createHealthRecord",
      "outputs": [],
      "stateMutability": "nonpayable",
      "type": "function"
    },
    {
      "inputs": [
        {
          "internalType": "address",
          "name": "senderAddress",
          "type": "address"
        },
        {
          "internalType": "address",
          "name": "patientAddress",
          "type": "address"
        },
        {
          "internalType": "string",
          "name": "recordId",
          "type": "string"
        }
      ],
      "name": "getHealthRecord",
      "outputs": [
        {
          "components": [
            {
              "internalType": "string",
              "name": "id",
              "type": "string"
            },
            {
              "internalType": "address",
              "name": "creatorAddress",
              "type": "address"
            },
            {
              "internalType": "string",
              "name": "description",
              "type": "string"
            },
            {
              "internalType": "string",
              "name": "cid",
              "type": "string"
            },
            {
              "internalType": "string",
              "name": "recordType",
              "type": "string"
            },
            {
              "internalType": "string",
              "name": "createdAt",
              "type": "string"
            },
            {
              "internalType": "bool",
              "name": "isActive",
              "type": "bool"
            },
            {
              "internalType": "uint256",
              "name": "version",
              "type": "uint256"
            },
            {
              "internalType": "string",
              "name": "previousId",
              "type": "string"
            }
          ],
          "internalType": "struct StorageHealthRecords.HealthRecord",
          "name": "",
          "type": "tuple"
        }
      ],
      "stateMutability": "view",
      "type": "function"
    },
    {
      "inputs": [
        {
          "internalType": "address",
          "name": "senderAddress",
          "type": "address"
        },
        {
          "internalType": "address",
          "name": "patientAddress",
          "type": "address"
        }
      ],
      "name": "getHealthRecordsByAddress",
      "outputs": [
        {
          "components": [
            {
              "internalType": "string",
              "name": "id",
              "type": "string"
            },
            {
              "internalType": "address",
              "name": "creatorAddress",
              "type": "address"
            },
            {
              "internalType": "string",
              "name": "description",
              "type": "string"
            },
            {
              "internalType": "string",
              "name": "cid",
              "type": "string"
            },
            {
              "internalType": "string",
              "name": "recordType",
              "type": "string"
            },
            {
              "internalType": "string",
              "name": "createdAt",
              "type": "string"
            },
            {
              "internalType": "bool",
              "name": "isActive",
              "type": "bool"
            },
            {
              "internalType": "uint256",
              "name": "version",
              "type": "uint256"
            },
            {
              "internalType": "string",
              "name": "previousId",
              "type": "string"
            }
          ],
          "internalType": "struct StorageHealthRecords.HealthRecord[]",
          "name": "",
          "type": "tuple[]"
        }
      ],
      "stateMutability": "view",
      "type": "function"
    },
    {
      "inputs": [
        {
          "internalType": "address",
          "name": "senderAddress",
          "type": "address"
        },
        {
          "internalType": "address",
          "name": "patientAddress",
          "type": "address"
        },
        {
          "internalType": "string",
          "name": "newRecordId",
          "type": "string"
        },
        {
          "internalType": "string",
          "name": "recordId",
          "type": "string"
        },
        {
          "internalType": "string",
          "name": "description",
          "type": "string"
        },
        {
          "internalType": "string",
          "name": "cid",
          "type": "string"
        },
        {
          "internalType": "string",
          "name": "recordType",
          "type": "string"
        },
        {
          "internalType": "string",
          "name": "createdAt",
          "type": "string"
        }
      ],
      "name": "updateHealthRecord",
      "outputs": [],
      "stateMutability": "nonpayable",
      "type": "function"
    },
    {
      "inputs": [
        {
          "internalType": "address",
          "name": "senderAddress",
          "type": "address"
        },
        {
          "internalType": "address",
          "name": "patientAddress",
          "type": "address"
        },
        {
          "internalType": "string",
          "name": "recordId",
          "type": "string"
        }
      ],
      "name": "deleteHealthRecord",
      "outputs": [],
      "stateMutability": "nonpayable",
      "type": "function"
    },
    {
      "inputs": [
        {
          "internalType": "address",
          "name": "senderAddress",
          "type": "address"
        },
        {
          "internalType": "address",
          "name": "patientAddress",
          "type": "address"
        },
        {
          "internalType": "string",
          "name": "recordId",
          "type": "string"
        }
      ],
      "name": "revertDeleteHealthRecord",
      "outputs": [],
      "stateMutability": "nonpayable",
      "type": "function"
    },
    {
      "inputs": [
        {
          "internalType": "address",
          "name": "senderAddress",
          "type": "address"
        },
        {
          "internalType": "address",
          "name": "doctorAddress",
          "type": "address"
        },
        {
          "internalType": "bool",
          "name": "canCreate",
          "type": "bool"
        },
        {
          "internalType": "bool",
          "name": "canRead",
          "type": "bool"
        },
        {
          "internalType": "bool",
          "name": "canUpdate",
          "type": "bool"
        },
        {
          "internalType": "bool",
          "name": "canDelete",
          "type": "bool"
        }
      ],
      "name": "permissionPatientGrantDoctor",
      "outputs": [],
      "stateMutability": "nonpayable",
      "type": "function"
    },
    {
      "inputs": [
        {
          "internalType": "address",
          "name": "senderAddress",
          "type": "address"
        },
        {
          "internalType": "address",
          "name": "doctorAddress",
          "type": "address"
        }
      ],
      "name": "permissionPatientRevokeDoctor",
      "outputs": [],
      "stateMutability": "nonpayable",
      "type": "function"
    },
    {
      "inputs": [
        {
          "internalType": "address",
          "name": "senderAddress",
          "type": "address"
        },
        {
          "internalType": "address",
          "name": "patientAddress",
          "type": "address"
        },
        {
          "internalType": "bool",
          "name": "canCreate",
          "type": "bool"
        },
        {
          "internalType": "bool",
          "name": "canRead",
          "type": "bool"
        },
        {
          "internalType": "bool",
          "name": "canUpdate",
          "type": "bool"
        },
        {
          "internalType": "bool",
          "name": "canDelete",
          "type": "bool"
        }
      ],
      "name": "requestAccessDoctor",
      "outputs": [],
      "stateMutability": "nonpayable",
      "type": "function"
    },
    {
      "inputs": [
        {
          "internalType": "address",
          "name": "senderAddress",
          "type": "address"
        },
        {
          "internalType": "address",
          "name": "doctorAddress",
          "type": "address"
        }
      ],
      "name": "requestAccessApproved",
      "outputs": [],
      "stateMutability": "nonpayable",
      "type": "function"
    },
    {
      "inputs": [
        {
          "internalType": "address",
          "name": "senderAddress",
          "type": "address"
        },
        {
          "internalType": "address",
          "name": "doctorAddress",
          "type": "address"
        }
      ],
      "name": "requestAccessDenied",
      "outputs": [],
      "stateMutability": "nonpayable",
      "type": "function"
    },
    {
      "inputs": [
        {
          "internalType": "address",
          "name": "patientAddress",
          "type": "address"
        }
      ],
      "name": "getPatientDoctors",
      "outputs": [
        {
          "components": [
            {
              "internalType": "address",
              "name": "userAddress",
              "type": "address"
            },
            {
              "internalType": "bool",
              "name": "canCreate",
              "type": "bool"
            },
            {
              "internalType": "bool",
              "name": "canRead",
              "type": "bool"
            },
            {
              "internalType": "bool",
              "name": "canUpdate",
              "type": "bool"
            },
            {
              "internalType": "bool",
              "name": "canDelete",
              "type": "bool"
            }
          ],
          "internalType": "struct StorageHealthRecords.AccessResponse[]",
          "name": "approved",
          "type": "tuple[]"
        },
        {
          "components": [
            {
              "internalType": "address",
              "name": "userAddress",
              "type": "address"
            },
            {
              "internalType": "bool",
              "name": "canCreate",
              "type": "bool"
            },
            {
              "internalType": "bool",
              "name": "canRead",
              "type": "bool"
            },
            {
              "internalType": "bool",
              "name": "canUpdate",
              "type": "bool"
            },
            {
              "internalType": "bool",
              "name": "canDelete",
              "type": "bool"
            }
          ],
          "internalType": "struct StorageHealthRecords.AccessResponse[]",
          "name": "pending",
          "type": "tuple[]"
        }
      ],
      "stateMutability": "view",
      "type": "function"
    },
    {
      "inputs": [
        {
          "internalType": "address",
          "name": "doctorAddress",
          "type": "address"
        }
      ],
      "name": "getDoctorPatients",
      "outputs": [
        {
          "components": [
            {
              "internalType": "address",
              "name": "userAddress",
              "type": "address"
            },
            {
              "internalType": "bool",
              "name": "canCreate",
              "type": "bool"
            },
            {
              "internalType": "bool",
              "name": "canRead",
              "type": "bool"
            },
            {
              "internalType": "bool",
              "name": "canUpdate",
              "type": "bool"
            },
            {
              "internalType": "bool",
              "name": "canDelete",
              "type": "bool"
            }
          ],
          "internalType": "struct StorageHealthRecords.AccessResponse[]",
          "name": "approved",
          "type": "tuple[]"
        },
        {
          "components": [
            {
              "internalType": "address",
              "name": "userAddress",
              "type": "address"
            },
            {
              "internalType": "bool",
              "name": "canCreate",
              "type": "bool"
            },
            {
              "internalType": "bool",
              "name": "canRead",
              "type": "bool"
            },
            {
              "internalType": "bool",
              "name": "canUpdate",
              "type": "bool"
            },
            {
              "internalType": "bool",
              "name": "canDelete",
              "type": "bool"
            }
          ],
          "internalType": "struct StorageHealthRecords.AccessResponse[]",
          "name": "pending",
          "type": "tuple[]"
        }
      ],
      "stateMutability": "view",
      "type": "function"
    },
    {
      "inputs": [
        {
          "internalType": "address",
          "name": "doctorAddress",
          "type": "address"
        },
        {
          "internalType": "address",
          "name": "patientAddress",
          "type": "address"
        }
      ],
      "name": "getDoctorPermission",
      "outputs": [
        {
          "components": [
            {
              "internalType": "address",
              "name": "userAddress",
              "type": "address"
            },
            {
              "internalType": "bool",
              "name": "canCreate",
              "type": "bool"
            },
            {
              "internalType": "bool",
              "name": "canRead",
              "type": "bool"
            },
            {
              "internalType": "bool",
              "name": "canUpdate",
              "type": "bool"
            },
            {
              "internalType": "bool",
              "name": "canDelete",
              "type": "bool"
            }
          ],
          "internalType": "struct StorageHealthRecords.AccessResponse",
          "name": "",
          "type": "tuple"
        }
      ],
      "stateMutability": "view",
      "type": "function"
    },
    {
      "inputs": [
        {
          "internalType": "address",
          "name": "addr",
          "type": "address"
        }
      ],
      "name": "addressToString",
      "outputs": [
        {
          "internalType": "string",
          "name": "",
          "type": "string"
        }
      ],
      "stateMutability": "pure",
      "type": "function"
    },
    {
      "inputs": [
        {
          "internalType": "string",
          "name": "message",
          "type": "string"
        }
      ],
      "name": "testSendTransaction",
      "outputs": [],
      "stateMutability": "nonpayable",
      "type": "function"
    }
  ],
  "bytecode": "0x6080806040523461001657613bda908161001c8239f35b600080fdfe6080604052600436101561001257600080fd5b60e0600035811c9081630e9a705a14611f085781630ea12c1a14611ead5781630f5350df14611e74578163413f107a14611e1157816352242f5514611d9e5781635af109a814611d1d5781635e3b30c814611c2e5781635e57966d14611ab3578163603b7e8a146118f25781636f77926b1461169f5781638f7741ac1461161c5781639673ccd0146115775781639e515fb514610a6f578163a5faca9e14610950578163ba508467146108c3578163bab90dbd146106bd578163c40efcf51461062457508063c71e105c146105eb578063ccfcdc6e146104f6578063df95b9951461034b578063e4d93e4f1461027a578063f567ac7f1461020d5763f7d516d71461011c57600080fd5b346102085761010036600319011261020857610136612195565b61013e6121ab565b6001600160401b039190604435838111610208576101609036906004016123dd565b606435848111610208576101789036906004016123dd565b608435858111610208576101909036906004016123dd565b9060a435868111610208576101a99036906004016123dd565b9260c435878111610208576101c29036906004016123dd565b9460e435978811610208576101de6102069836906004016123dd565b9660018060a01b038216600052600560205261020160ff6040600020541661271e565b613189565b005b600080fd5b34610208576020366003190112610208576004356001600160401b0381116102085761023d9036906004016123dd565b7fea444dd7122a2566183a7902fbb509c213d7483f822bb6b81bbf91381565c7e96040516020815280610275339460208301906121e4565b0390a2005b3461020857604036600319011261020857610293612195565b61029b6121ab565b60018060a01b0361030a8184169283600052602092600584526102c560ff6040600020541661271e565b81169485600052600684526102e160ff604060002054166128cf565b8460005260088452604060002086600052845261030560ff604060002054166136f3565b61385f565b81600052600881526040600020908360005252600060408120557fc21bbf9d94f95c3d399c96e6e0a641c57c9d086081bf1ab101a242d646821f80600080a3005b34610208577fa980ff82f0d9a377c89efbdcce54f6d39ff21bfa6493df48b93f603b1f7fc0dc6104b361037d36612524565b9060018060a09997989496991b038088169889600052602091600683526103ab60ff604060002054166128cf565b81169889600052600583526103c760ff6040600020541661271e565b6040516103d381612384565b6001815283810188151581528b8d60408401928c151584526060850191891515835260808601938b151585526000526008895260406000209060005288526104236040600020955115158661261f565b5115159261ff0063ff00000062ff000087549351151560101b169351151560181b169360ff60201b905115158a1b169460081b169064ffffffff001916171717179055896000526003835261047f816001604060002001613a4e565b156104d7575b50896000526004825261049f816001604060002001613a4e565b156104b8575b505060405194859485613683565b0390a3005b60046104d0928b6000525260016040600020016125db565b88806104a5565b6104f0908a6000526003845260016040600020016125db565b8a610485565b346102085760403660031901126102085761050f612195565b6105176121ab565b600080516020613b65833981519152608060018060a01b036105ce81861694856000526020926005845261055260ff6040600020541661271e565b811696876000526006845261056e60ff604060002054166128cf565b8660005260078452604060002088600052845260006040812055866000526008845260406000208860005284526000604081205586600052600384526105b8826040600020613a9f565b8760005260048452610305816040600020613a9f565b6000604051918183528201526000604082015260006060820152a3005b34610208576102066105fc36612433565b9160018060a01b038216600052600560205261061f60ff6040600020541661271e565b6135c3565b34610208576106a56106b99161063936612433565b926040929192519061064a82612368565b600060609182845281602085015282604085015282808501528260808501528260a08501528160c085015283015261010082015260018060a01b03831660005260056020526106a060ff6040600020541661271e565b61306c565b604051918291602083526020830190612246565b0390f35b346102085760209081600319360112610208576001600160a01b0391826106e2612195565b169081600052600681526106fd60ff604060002054166128cf565b8160005260028152604060002091604051926107188461234d565b604051610730816107298185612630565b03826123ba565b84526040519561074e876107478160018601612630565b03886123ba565b83850196875260405192610770846107698160028701612630565b03856123ba565b60408601938452604051916107938361078c8160038801612630565b03846123ba565b606087019283526040516107ae816107298160048901612630565b60808801526006604051946107d1866107ca8160058501612630565b03876123ba565b60a0890195865201541660c08701526000908152600485526040908190208151949185016001600160401b038111868210176108ad57604052610813816126c6565b8552600101610821906126c6565b95868686015251975190519151925193519460405198888a998a528901610847916121e4565b9088820390890152610858916121e4565b8681036040880152610869916121e4565b858103606087015261087a916121e4565b848103608086015261088b916121e4565b83810360a085015261089c91612209565b82810360c08401526106b991612209565b634e487b7160e01b600052604160045260246000fd5b34610208576020366003190112610208576108dc612195565b61094060018060a01b0382169182600052600660205261090360ff604060002054166128cf565b8260005260046020526109228161091d60406000206126c6565b6138c8565b92600052600460205261093b60016040600020016126c6565b6139c6565b906106b9604051928392836124ff565b3461020857604036600319011261020857610969612195565b6109716121ab565b61097961389d565b5060018060a01b038091169081600052602092600584526109a160ff6040600020541661271e565b169081600052600683526109bc60ff604060002054166128cf565b6000526007825260406000208160005282526109db60406000206136a6565b805115610a335791828160a09401511515604082015115159060806060840151151593015115159360405195610a1087612384565b8652850152604084015260608301526080820152610a316040518092612480565bf35b60405162461bcd60e51b815260048101849052601460248201527314195c9b5a5cdcda5bdb881b9bdd08199bdd5b9960621b6044820152606490fd5b346102085736600319011261020857610a86612195565b6024356001600160401b03811161020857610aa59036906004016123dd565b6044356001600160401b03811161020857610ac49036906004016123dd565b6064356001600160401b03811161020857610ae39036906004016123dd565b6084356001600160401b03811161020857610b029036906004016123dd565b60a4356001600160401b03811161020857610b219036906004016123dd565b9160c4356001600160401b03811161020857610b419036906004016123dd565b9360018060a01b038716600052600560205260ff604060002054161580611562575b15611523576040516020810190610b9460208281610b878b878151938492016121c1565b81010380845201826123ba565b51902060405160208101906614185d1a595b9d60ca1b825260078152610bb98161239f565b5190201480156114d6575b156114a25760405195610bd68761234d565b865260208601526040850152606084015260808301528060a083015260018060a01b03831660c083015260018060a01b03831660005260026020526040600020825180519060018060401b0382116108ad578190610c348454612589565b601f8111611452575b50602090601f83116001146113e6576000926113db575b50508160011b916000199060031b1c19161781555b60208301518051906001600160401b0382116108ad578190610c8e6001850154612589565b601f8111611388575b50602090601f83116001146113165760009261130b575b50508160011b916000199060031b1c19161760018201555b60408301518051906001600160401b0382116108ad578190610ceb6002850154612589565b601f81116112b8575b50602090601f83116001146112465760009261123b575b50508160011b916000199060031b1c19161760028201555b60608301518051906001600160401b0382116108ad578190610d486003850154612589565b601f81116111e8575b50602090601f83116001146111765760009261116b575b50508160011b916000199060031b1c19161760038201555b60808301518051906001600160401b0382116108ad578190610da56004850154612589565b601f8111611118575b50602090601f83116001146110a65760009261109b575b50508160011b916000199060031b1c19161760048201555b60a08301518051906001600160401b0382116108ad57610e006005840154612589565b601f8111611054575b50602090601f8311600114610fe157600693929160009183610fd6575b50508160011b916000199060031b1c19161760058201555b019160c060018060a01b03910151169160018060a01b03199283825416179055604051610e7b60208281610b8781830196878151938492016121c1565b51902060405160208101906614185d1a595b9d60ca1b825260078152610ea08161239f565b51902003610f5357600054600160401b8110156108ad576001810180600055811015610f3d577f290decd9548b62a8d60345a988386fc84ba6bc95484008f6362f93160ef3e5630180549091166001600160a01b039290921691821790556000818152600560205260408120805460ff191660011790557fc9fa2003fca4ce0dfc8cb0deae32266b715536df6685365b05b5be96ede8e49c9080a2005b634e487b7160e01b600052603260045260246000fd5b600154600160401b8110156108ad576001810180600155811015610f3d57600080516020613b858339815191520180549091166001600160a01b039290921691821790556000818152600660205260408120805460ff191660011790557f2dc8105a7545248d0e354c4c6b02fb583071cc719fb4bef1ca74d72d475570bc9080a2005b015190508780610e26565b906005840160005260206000209160005b601f198516811061103c575091839160019360069695601f19811610611023575b505050811b016005820155610e3e565b015160001960f88460031b161c19169055878080611013565b91926020600181928685015181550194019201610ff2565b600584016000526020600020601f840160051c810160208510611094575b601f830160051c82018110611088575050610e09565b60008155600101611072565b5080611072565b015190508680610dc5565b9250600484016000526020600020906000935b601f19841685106110fd576001945083601f198116106110e4575b505050811b016004820155610ddd565b015160001960f88460031b161c191690558680806110d4565b818101518355602094850194600190930192909101906110b9565b909150600484016000526020600020601f840160051c810160208510611164575b90849392915b601f830160051c82018110611155575050610dae565b6000815585945060010161113f565b5080611139565b015190508680610d68565b9250600384016000526020600020906000935b601f19841685106111cd576001945083601f198116106111b4575b505050811b016003820155610d80565b015160001960f88460031b161c191690558680806111a4565b81810151835560209485019460019093019290910190611189565b909150600384016000526020600020601f840160051c810160208510611234575b90849392915b601f830160051c82018110611225575050610d51565b6000815585945060010161120f565b5080611209565b015190508680610d0b565b9250600284016000526020600020906000935b601f198416851061129d576001945083601f19811610611284575b505050811b016002820155610d23565b015160001960f88460031b161c19169055868080611274565b81810151835560209485019460019093019290910190611259565b909150600284016000526020600020601f840160051c810160208510611304575b90849392915b601f830160051c820181106112f5575050610cf4565b600081558594506001016112df565b50806112d9565b015190508680610cae565b9250600184016000526020600020906000935b601f198416851061136d576001945083601f19811610611354575b505050811b016001820155610cc6565b015160001960f88460031b161c19169055868080611344565b81810151835560209485019460019093019290910190611329565b909150600184016000526020600020601f840160051c8101602085106113d4575b90849392915b601f830160051c820181106113c5575050610c97565b600081558594506001016113af565b50806113a9565b015190508680610c54565b9250836000526020600020906000935b601f1984168510611437576001945083601f1981161061141e575b505050811b018155610c69565b015160001960f88460031b161c19169055868080611411565b818101518355602094850194600190930192909101906113f6565b909150836000526020600020601f840160051c81016020851061149b575b90849392915b601f830160051c8201811061148c575050610c3d565b60008155859450600101611476565b5080611470565b60405162461bcd60e51b815260206004820152600c60248201526b496e76616c696420726f6c6560a01b6044820152606490fd5b5060405160208101906114f660208281610b878b878151938492016121c1565b5190206040516020810190652237b1ba37b960d11b82526006815261151a8161239f565b51902014610bc4565b60405162461bcd60e51b8152602060048201526017602482015276155cd95c88185b1c9958591e481c9959da5cdd195c9959604a1b6044820152606490fd5b50600660205260ff6040600020541615610b63565b3461020857604036600319011261020857611590612195565b6115e36001600160a01b03806115a46121ab565b16928360005260056020526115c060ff6040600020541661271e565b168060005260066020528260ff60406000205416918215611612575b5050612763565b60005260036020526106b96115fe60026040600020016127bc565b6040519182916020835260208301906122f1565b14905082846115dc565b3461020857600036600319011261020857604051600180548083526000828152602092849184830191600080516020613b85833981519152915b8686821061168057859061166c828703836123ba565b6106b9604051928284938452830190612209565b83546001600160a01b0316855288955090930192918101918101611656565b3461020857602080600319360112610208576116b9612195565b90604051916116c78361234d565b600060c0606094858152858582015285604082015285808201528560808201528560a0820152015260018060a01b03809116806000526005835260ff6040600020541680156118df575b156118a45790849160005260028352604060002093604051946117338661234d565b604051806117418184612630565b0361174c90826123ba565b865260405191826117608160018501612630565b0361176b90846123ba565b86860192835260405190816117838160028601612630565b0361178e90836123ba565b60408881019283525190816117a68160038701612630565b036117b190836123ba565b88810191825260405192836117c98160048801612630565b036117d490856123ba565b60808a01938452604051948790866117ef8160058401612630565b036117fa90886123ba565b60a08c0196875260060154169860c08b01998a526040519b8c9b828d5251918c01526101008b0161182a916121e4565b9551601f1996878c82030160408d0152611843916121e4565b905191868b830301908b0152611858916121e4565b905190848982030160808a015261186e916121e4565b905190838882030160a0890152611884916121e4565b9051918682030160c0870152611899916121e4565b925116908301520390f35b60405162461bcd60e51b8152600481018490526013602482015272155cd95c881b9bdd081c9959da5cdd195c9959606a1b6044820152606490fd5b506006835260ff60406000205416611711565b3461020857806003193601126102085761190a612195565b906119136121ab565b916001600160401b0390604435828111610208576119359036906004016123dd565b916064358181116102085761194e9036906004016123dd565b93608435828111610208576119679036906004016123dd565b9060a435838111610208576119809036906004016123dd565b9060c435918483116102085761199c60019336906004016123dd565b90838060a01b03809a16998a600052602097600589526119c360ff6040600020541661271e565b16948a86148015611a79575b6119d890612763565b8a60005260038852600260406000200199604051966119f688612368565b8a88528988015260408701526060860152608085015260a08401528160c08401528201526040519483860192868410908411176108ad577f5abd141eb3688cbf42777909029ca2ace43a63fb88e1477ba82fb4858861354595611a659360405260008152610100830152612fee565b6102756040519282849384528301906121e4565b50856000526006885260ff6040600020541680156119cf575060008b81526007895260408082208883528a5290205460081c60ff166119cf565b346102085760208060031936011261020857611acd612195565b60405160609190911b6001600160601b0319168183015260148082529190611af48161239f565b60405192611b018461239f565b601084526f181899199a1a9b1b9c1cb0b131b232b360811b8385015260405193606085016001600160401b038111868210176108ad57604052602a85528385016040368237855115610f3d57603090538451600190811015610f3d576078602187015360005b838110611b8157604051868152806106b98189018a6121e4565b6001600160f81b03199081611ba3611b998389613b53565b5160fc1c86613b53565b51169181841b92600290838504821484151715611c1857848201809211611c1857611bd29060001a918b613b53565b53611bed600f611be2848a613b53565b5160f81c1686613b53565b5116916003908101809111611c1857611c0d611c139360001a918a613b53565b53613017565b611b67565b634e487b7160e01b600052601160045260246000fd5b3461020857604036600319011261020857611c47612195565b611c4f6121ab565b90600080516020613b6583398151915260018060a01b039182811692836000526005602052611c8560ff6040600020541661271e565b841693846000526006602052611ca260ff604060002054166128cf565b8360005260086020526040600020856000526020526104b3611cc760406000206136a6565b91611cd4835115156136f3565b60208301611d018151151595604086019586511515606082019860808a511515930196875115159461373a565b5115159251151593511515905115159060405194859485613683565b3461020857611d926104b3600080516020613b65833981519152611d4036612524565b919497828287868c9b979860018060a01b03809d169c8d6000526005602052611d7060ff6040600020541661271e565b81169d8e6000526006602052611d8d60ff604060002054166128cf565b61373a565b60405194859485613683565b3461020857602036600319011261020857611db7612195565b61094060018060a01b03821691826000526005602052611dde60ff6040600020541661271e565b826000526003602052611df88161091d60406000206126c6565b92600052600360205261093b60016040600020016126c6565b34610208576000366003190112610208576040518060005480825282602080930160008052836000209260005b85828210611e555750505061166c925003836123ba565b85546001600160a01b0316845260019586019588955093019201611e3e565b3461020857610206611e8536612433565b9160018060a01b0382166000526005602052611ea860ff6040600020541661271e565b613498565b34610208576020366003190112610208576001600160a01b03611ece612195565b16600052600560205260ff604060002054168015611ef4575b6020906040519015158152f35b50600660205260406000205460ff16611ee7565b3461020857604036600319011261020857611f21612195565b611f296121ab565b9160018060a01b03809216806000528260209460058652611f5160ff6040600020541661271e565b16818114801561214b575b611f669150612763565b806000526002845260406000209160405192611f818461234d565b604051611f92816107298185612630565b845260405194611fa9866107ca8160018601612630565b86850195865260405193611fcb85611fc48160028701612630565b03866123ba565b6040860194855260405191611fe78361078c8160038801612630565b60608701928352604051612002816107298160048901612630565b608088015260066040519461201e866107ca8160058501612630565b60a0890195865201541660c087015260005260038752604060002091604051906080820182811060018060401b038211176108ad5760405261205f846126c6565b825261206d600185016126c6565b828a0190815292612080600286016127bc565b9460408401958652600301612094906127bc565b97886060850152519851965190519151925193519451966040519a8b9a610120808d528c016120c2916121e4565b908b8203908c01526120d3916121e4565b89810360408b01526120e4916121e4565b88810360608a01526120f5916121e4565b8781036080890152612106916121e4565b86810360a088015261211791612209565b85810360c087015261212891612209565b9084820390850152612139916122f1565b8281036101008401526106b9916122f1565b50806000526006855260ff604060002054168061216d575b611f669150611f5c565b5081600052600785526040600020906000528452611f6660ff60406000205460101c16612163565b600435906001600160a01b038216820361020857565b602435906001600160a01b038216820361020857565b60005b8381106121d45750506000910152565b81810151838201526020016121c4565b906020916121fd815180928185528580860191016121c1565b601f01601f1916010190565b90815180825260208080930193019160005b828110612229575050505090565b83516001600160a01b03168552938101939281019260010161221b565b906122ee916122c46122b26122a061228e61226a85516101208089528801906121e4565b60018060a01b036020870151166020880152604086015187820360408901526121e4565b606085015186820360608801526121e4565b608084015185820360808701526121e4565b60a083015184820360a08601526121e4565b9160c0820151151560c082015260e082015160e082015261010080920151918184039101526121e4565b90565b908082519081815260208091019281808460051b8301019501936000915b84831061231f5750505050505090565b909192939495848061233d600193601f198682030187528a51612246565b980193019301919493929061230f565b60e081019081106001600160401b038211176108ad57604052565b61012081019081106001600160401b038211176108ad57604052565b60a081019081106001600160401b038211176108ad57604052565b604081019081106001600160401b038211176108ad57604052565b601f909101601f19168101906001600160401b038211908210176108ad57604052565b81601f82011215610208578035906001600160401b0382116108ad5760405192612411601f8401601f1916602001856123ba565b8284526020838301011161020857816000926020809301838601378301015290565b6060600319820112610208576001600160a01b03916004358381168103610208579260243590811681036102085791604435906001600160401b038211610208576122ee916004016123dd565b80516001600160a01b031682526020808201511515908301526040808201511515908301526060808201511515908301526080908101511515910152565b90815180825260208080930193019160005b8281106124de575050505090565b909192938260a0826124f36001948951612480565b019501939291016124d0565b90916125166122ee936040845260408401906124be565b9160208184039101526124be565b60c0906003190112610208576001600160a01b0390600435828116810361020857916024359081168103610208579060443580151581036102085790606435801515810361020857906084358015158103610208579060a43580151581036102085790565b90600182811c921680156125b9575b60208310146125a357565b634e487b7160e01b600052602260045260246000fd5b91607f1691612598565b8054821015610f3d5760005260206000200190600090565b80549190600160401b8310156108ad57826125fe91600161261d950181556125c3565b90919082549060031b9160018060a01b03809116831b921b1916179055565b565b9060ff801983541691151516179055565b906000929180549161264183612589565b9182825260019384811690816000146126a35750600114612663575b50505050565b90919394506000526020928360002092846000945b83861061268f57505050500101903880808061265d565b805485870183015294019385908201612678565b9294505050602093945060ff191683830152151560051b0101903880808061265d565b9060405191828154918282526020928383019160005283600020936000905b8282106126fb5750505061261d925003836123ba565b85546001600160a01b0316845260019586019588955093810193909101906126e5565b1561272557565b60405162461bcd60e51b815260206004820152601660248201527514185d1a595b9d081b9bdd081c9959da5cdd195c995960521b6044820152606490fd5b1561276a57565b60405162461bcd60e51b8152602060048201526013602482015272556e617574686f72697a65642061636365737360681b6044820152606490fd5b6001600160401b0381116108ad5760051b60200190565b9081546127c8816127a5565b926040936127d8855191826123ba565b828152809460208092019260005281600020906000935b8585106127fe57505050505050565b600984600192845161280f81612368565b855161281f81610729818b612630565b8152848060a01b038588015416838201528551612843816107298160028c01612630565b86820152855161285a816107298160038c01612630565b60608201528551612872816107298160048c01612630565b6080820152855161288a816107298160058c01612630565b60a082015260ff600688015416151560c0820152600787015460e082015285516128bb816107298160088c01612630565b6101008201528152019301940193916127ef565b156128d657565b60405162461bcd60e51b8152602060048201526015602482015274111bd8dd1bdc881b9bdd081c9959da5cdd195c9959605a1b6044820152606490fd5b8054821015610f3d576000526009602060002091020190600090565b90612fd8578151805190916001600160401b03918281116108ad57806129558354612589565b94601f95868111612f86575b50602090868311600114612f2157600092612f16575b50508160011b916000199060031b1c19161781555b60019283820160018060a01b0360208701511660018060a01b03198254161790556002820160408601518051908582116108ad5781906129cc8454612589565b858111612ec3575b50602090858311600114612e6057600092612e55575b5050600019600383901b1c191690861b1790555b60039182810160608701518051908682116108ad578190612a1f8454612589565b868111612e02575b50602090868311600114612da057600092612d95575b505060001982871b1c191690871b1790555b6004810160808701518051908682116108ad578190612a6e8454612589565b868111612d42575b50602090868311600114612ce057600092612cd5575b505060001982871b1c191690871b1790555b6005810160a08701518051908682116108ad57612abb8354612589565b858111612c8d575b50602090858311600114612c1f579180600894926101009694600092612c14575b505060001982891b1c191690891b1790555b612b0960c089015115156006830161261f565b60e088015160078201550195015180519384116108ad57612b2a8654612589565b828111612bcc575b506020918411600114612b6957938394918492600095612b5e575b50501b92600019911b1c1916179055565b015193503880612b4d565b9190601f198416928660005284826000209460005b88828210612bb357505010612b99575b50505050811b019055565b01519060f884600019921b161c1916905538808080612b8e565b8486015188559096019560209485019488935001612b7e565b8660005260206000208380870160051c82019260208810612c0b575b0160051c019086905b828110612bff575050612b32565b60008155018690612bf1565b92508192612be8565b015190503880612ae4565b889291601f1983169185600052816000209260005b818110612c755750916101009795939185600898969410612c5d575b505050811b019055612af6565b0151600019838b1b60f8161c19169055388080612c50565b8284015185558c969094019360209384019301612c34565b8360005260206000208680850160051c82019260208610612ccc575b0160051c019089905b828110612cc0575050612ac3565b60008155018990612cb2565b92508192612ca9565b015190503880612a8c565b90899350601f1983169185600052816000209260005b818110612d2a57508411612d12575b505050811b019055612a9e565b015160001983891b60f8161c19169055388080612d05565b8284015185558c969094019360209384019301612cf6565b9091508360005260206000208680850160051c82019260208610612d8c575b918b91869594930160051c01915b828110612d7d575050612a76565b600081558594508b9101612d6f565b92508192612d61565b015190503880612a3d565b90899350601f1983169185600052816000209260005b818110612dea57508411612dd2575b505050811b019055612a4f565b015160001983891b60f8161c19169055388080612dc5565b8284015185558c969094019360209384019301612db6565b9091508360005260206000208680850160051c82019260208610612e4c575b918b91869594930160051c01915b828110612e3d575050612a27565b600081558594508b9101612e2f565b92508192612e21565b0151905038806129ea565b90889350601f1983169185600052816000209260005b818110612eab57508411612e92575b505050811b0190556129fe565b015160001960f88460031b161c19169055388080612e85565b8284015185558b969094019360209384019301612e76565b9091508360005260206000208580850160051c82019260208610612f0d575b918a91869594930160051c01915b828110612efe5750506129d4565b600081558594508a9101612ef0565b92508192612ee2565b015190503880612977565b60008581528281209350601f198516905b818110612f6e5750908460019594939210612f55575b505050811b01815561298c565b015160001960f88460031b161c19169055388080612f48565b92936020600181928786015181550195019301612f32565b9091506000848152602081208780860160051c82019360208710612fcf575b908695949392910160051c01915b828110612fc1575050612961565b818155859450600101612fb3565b93508193612fa5565b634e487b7160e01b600052600060045260246000fd5b80549190600160401b8310156108ad578261301191600161261d95018155612913565b9061292f565b6000198114611c185760010190565b8051821015610f3d5760209160051b010190565b6060906020815260176020820152761219585b1d1a081c9958dbdc99081b9bdd08199bdd5b99604a1b60408201520190565b9190915060018060a01b038091166000818152602090600382526040906130976002838320016127bc565b95815b875181101561316d576130ad8189613026565b51518581519101208951868b0120146130ce576130c990613017565b61309a565b969593916131019850846130fc96949216848114958615613152575b508515613105575b5050505050612763565b613026565b5190565b8181929394959650526006845260ff938484842054169586613132575b50505050505038808080806130f2565b83526007815283832091835252205460101c169050388080808080613122565b909550836131608a8a613026565b51015116851494386130ea565b835162461bcd60e51b8152806131856004820161303a565b0390fd5b93966001600160a01b039182169694959094929186168714801561343c575b6131b190612763565b86600052600360205260406000209760005b60028a0154811015613423576107296131ef6131e28360028e01612913565b5060405192838092612630565b6020815191012086516020880120146132105761320b90613017565b6131c3565b91929394959697988683600283019061322891612913565b506132368560028501612913565b50906132458660028601612913565b50600101546001600160a01b0316916132618760028701612913565b5061326f8860028801612913565b509161327e8960028901612913565b5060070154936132918a60028a01612913565b5095604051976132a089612368565b88526020880152604051806002819301906132ba91612630565b036132c590826123ba565b6040870152604051806003819301906132dd91612630565b036132e890826123ba565b60608601526040518060048193019061330091612630565b0361330b90826123ba565b60808501526040518060058193019061332391612630565b0361332e90826123ba565b60a084015260c083016000905260e08301526040518060088193019061335391612630565b0361335e90826123ba565b6101008201526133719060038301612fee565b61337e8360028301612913565b50600701549860018a018a11611c18577f496728c3966d39323f4b0f6f4a7a5e1f1cbbc87338b4a1d5942049e331ae28179961341e9961340a98613011976002966001956040519b6133cf8d612368565b8c52868060a01b031660208c015260408b015260608a0152608089015260a08801528160c08801520160e08601528661010086015201612913565b6040519182916020835260208301906121e4565b0390a2565b60405162461bcd60e51b8152806131856004820161303a565b506131b1600060018060a01b0388168152600660205260ff6040822054169081613469575b5090506131a8565b8981526007602090815260408083206001600160a01b038c16845290915290205460181c60ff16905038613461565b6001600160a01b03918216916134ba911680831490811561357a575b50612763565b8060005260209160038352604092600284600020019360005b8554811015613562576107296134f86134ec8389612913565b50845192838092612630565b838151910120845184860120146135175761351290613017565b6134d3565b90600661354961341e937fbca92ff773fe1b82af61f0293353889ec496a5ca64b356a380b41783aa69f9ae9798612913565b5001805460ff19169055518281529283928301906121e4565b505162461bcd60e51b8152806131856004820161303a565b90506000818152600660205260ff604082205416918261359d575b5050386134b4565b60ff9250906040918582526007602052828220908252602052205460201c163880613595565b6001600160a01b03918216916135e4911680831490811561357a5750612763565b8060005260209160038352604092600284600020019360005b8554811015613562576107296136166134ec8389612913565b838151910120845184860120146136355761363090613017565b6135fd565b90600661366761341e937fceb0ad62277751977c5e246edbc4f5ac041d6591d4f463d1b4a2c5fdcdae6dde9798612913565b5001805460ff19166001179055518281529283928301906121e4565b901515815290151560208201529015156040820152901515606082015260800190565b906040516136b381612384565b608060ff82945481811615158452818160081c1615156020850152818160101c1615156040850152818160181c161515606085015260201c161515910152565b156136fa57565b60405162461bcd60e51b81526020600482015260186024820152771058d8d95cdcc81c995c5d595cdd081b9bdd08199bdd5b9960421b6044820152606490fd5b92919383919461261d96604092835161375281612384565b600181526020968782019415158552858201901515815260608201921515835260808201931515845260018060a01b03938488169360009685885260078b52888820968d16968789528b526137ad898920955115158661261f565b5115159261ff0063ff00000062ff000087549351151560101b169351151560181b169360ff60201b905115158d1b169460081b169064ffffffff0019161717171790558083526003865261380388858520613a4e565b15613847575b508082526004855261381d84848420613a4e565b1561382d575b505050505061385f565b61383d94600491835252206125db565b3881818080613823565b825260038552613859878484206125db565b38613809565b61261d9160018060a01b03908183166000526003602052613887816001604060002001613a9f565b1660005260046020526001604060002001613a9f565b604051906138aa82612384565b60006080838281528260208201528260408201528260608201520152565b91908251906138d6826127a5565b936040926138e6845196876123ba565b8086526138f5601f19916127a5565b0160005b8181106139af57505060005b815181101561265d576139aa9060018060a01b0380851660005260206007815286600020826139348588613026565b51166000528152613947876000206136a6565b916139528487613026565b511691818101511515888201511515606090818401511515926080809501511515958c519761398089612384565b88528701528a8601528401528201526139998289613026565b526139a48188613026565b50613017565b613905565b6020906139ba61389d565b82828a010152016138f9565b91908251906139d4826127a5565b936040926139e4845196876123ba565b8086526139f3601f19916127a5565b0160005b818110613a3757505060005b815181101561265d57613a329060018060a01b0380851660005260206008815286600020826139348588613026565b613a03565b602090613a4261389d565b82828a010152016139f7565b9060005b8254811015613a9757613a6581846125c3565b905460039190911b1c6001600160a01b0390811690831614613a8f57613a8a90613017565b613a52565b505050600190565b505050600090565b6000915b8154928381101561265d57613ab881846125c3565b90546003956001600160a01b0392909190871b1c821684831614613aeb575050613ae491929350613017565b9190613aa3565b90925060001991828201918211611c18576125fe84613b0d613b1b94886125c3565b905490891b1c1691866125c3565b82548015613b3d570192613b2f84846125c3565b81939154921b1b1916905555565b634e487b7160e01b600052603160045260246000fd5b908151811015610f3d57016020019056fecc7f0cd5708e7c282b3938e7950d37b95821195d2d1a71a5897d6512f30c6524b10e2d527612073b26eecdfd717e6a320cf44b4afac2b0732d9fcbe2b7fa0cf6a2646970667358221220606ffe809429633bf3d2ba45ba69252d3c3bda4049afd2116c0ef15edc89ad5d64736f6c63430008130033",
  "immutableReferences": {},
  "source": "// SPDX-License-Identifier: MIT\npragma solidity ^0.8.19;\n\ncontract StorageHealthRecords {\n    struct HealthRecord {\n        string id;\n        address creatorAddress;\n        string description;\n        string cid;\n        string recordType;\n        string createdAt;\n        bool isActive;\n        uint version;\n        string previousId;\n    }\n\n    struct User {\n        string name;\n        string birthDate;\n        string homeAddress;\n        string aesKey;\n        string passKey;\n        string role;\n        address ethAddress;\n    }\n\n    struct Patient {\n        address[] doctors;\n        address[] doctorsPending;\n        HealthRecord[] healthRecords;\n        HealthRecord[] oldHealthRecords;\n    } \n\n    struct Doctor {\n        address[] patients;\n        address[] patientsPending;\n    }\n\n    struct Access {\n        bool isRequested;\n        bool canCreate;\n        bool canRead;\n        bool canUpdate;\n        bool canDelete;\n    }\n\n    struct AccessResponse {\n        address userAddress;\n        bool canCreate;\n        bool canRead;\n        bool canUpdate;\n        bool canDelete;\n    }\n\n    address[] private registeredPatients;\n    address[] private registeredDoctors;\n\n    mapping(address => User) private users;\n    mapping(address => Patient) private patients;\n    mapping(address => Doctor) private doctors;\n    mapping(address => bool) private isPatientRegistered; \n    mapping(address => bool) private isDoctorRegistered;\n    mapping(address => mapping(address => Access)) private doctorPermissions;\n    mapping(address => mapping(address => Access)) private doctorRequestAccess;\n\n    // Events\n    event PatientRegistered(address indexed patient);\n    event DoctorRegistered(address indexed doctor);\n    event AccessRequested(address indexed patient, address indexed doctor, bool canCreate, bool canRead, bool canUpdate, bool canDelete);\n    event AccessApproved(address indexed patient, address indexed doctor, bool canCreate, bool canRead, bool canUpdate, bool canDelete);\n    event AccessDenied(address indexed patient, address indexed doctor);\n    event HealthRecordCreated(address indexed patient, string recordId);\n    event HealthRecordUpdated(address indexed patient, string recordId);\n    event HealthRecordDeleted(address indexed patient, string recordId);\n    event HealthRecordRevertDeleted(address indexed patient, string recordId);\n    event SendTest(address indexed creator, string message);\n\n    // Modifiers\n    modifier onlyRegisteredPatient(address patient) {\n        require(isPatientRegistered[patient], \"Patient not registered\");\n        _;\n    }\n\n    modifier onlyRegisteredDoctor(address doctor) {\n        require(isDoctorRegistered[doctor], \"Doctor not registered\");\n        _;\n    }\n\n    modifier onlyPatientOrDoctorWithAccess(address patient, address caller, bool requireCreate, bool requireRead, bool requireUpdate, bool requireDelete) {\n        require(\n            caller == patient || \n            (isDoctorRegistered[caller] && \n            (!requireCreate || doctorPermissions[patient][caller].canCreate) &&\n            (!requireRead || doctorPermissions[patient][caller].canRead) &&\n            (!requireUpdate || doctorPermissions[patient][caller].canUpdate) &&\n            (!requireDelete || doctorPermissions[patient][caller].canDelete)),\n            \"Unauthorized access\"\n        );\n        _;\n    }\n\n    // User Registration\n    function registerUser(\n        address senderAddress,\n        string memory name, \n        string memory birthDate, \n        string memory homeAddress,\n        string memory aesKey, \n        string memory passKey,\n        string memory role\n    ) external {\n        require(!isPatientRegistered[senderAddress] && !isDoctorRegistered[senderAddress], \"User already registered\");\n        require(keccak256(abi.encodePacked(role)) == keccak256(abi.encodePacked(\"Patient\")) || \n               keccak256(abi.encodePacked(role)) == keccak256(abi.encodePacked(\"Doctor\")), \n               \"Invalid role\");\n\n        users[senderAddress] = User({\n            name: name,\n            birthDate: birthDate,\n            homeAddress: homeAddress,\n            aesKey: aesKey,\n            passKey: passKey,\n            role: role,\n            ethAddress: senderAddress\n        });\n\n        if (keccak256(abi.encodePacked(role)) == keccak256(abi.encodePacked(\"Patient\"))) {\n            registeredPatients.push(senderAddress);\n            isPatientRegistered[senderAddress] = true;\n            emit PatientRegistered(senderAddress);\n        } else {\n            registeredDoctors.push(senderAddress);\n            isDoctorRegistered[senderAddress] = true;\n            emit DoctorRegistered(senderAddress);\n        }\n    }\n\n    // View Functions\n    function checkIsUserRegistered(address addressUser) external view returns (bool) {\n        return isPatientRegistered[addressUser] || isDoctorRegistered[addressUser];\n    }\n\n    function getUser(address userAddress) external view returns (User memory) {\n        require(isPatientRegistered[userAddress] || isDoctorRegistered[userAddress], \"User not registered\");\n        return users[userAddress];\n    }\n\n    function getAllRegisteredPatients() external view returns (address[] memory) {\n        return registeredPatients;\n    }\n\n    function getAllRegisteredDoctors() external view returns (address[] memory) {\n        return registeredDoctors;\n    }\n\n    // Patient Details\n    function getPatientDetails(address patientAddress, address senderAddress) \n        external \n        view \n        onlyRegisteredPatient(patientAddress)\n        returns (\n            string memory name, \n            string memory birthDate, \n            string memory homeAddress, \n            string memory aesKey,\n            string memory role,\n            address[] memory doctorsApproved, \n            address[] memory doctorsPending, \n            HealthRecord[] memory healthRecords,\n            HealthRecord[] memory oldHealthRecords\n        ) \n    {\n        require(\n            senderAddress == patientAddress || \n            (isDoctorRegistered[senderAddress] && doctorPermissions[patientAddress][senderAddress].canRead),\n            \"Unauthorized access\"\n        );\n        \n        User memory user = users[patientAddress];\n        Patient memory patient = patients[patientAddress];\n\n        return ( \n            user.name, \n            user.birthDate, \n            user.homeAddress, \n            user.aesKey,\n            user.role, \n            patient.doctors, \n            patient.doctorsPending, \n            patient.healthRecords,\n            patient.oldHealthRecords\n        );\n    }\n\n    // Doctor Details\n    function getDoctorDetails(address doctorAddress) \n        external \n        view \n        onlyRegisteredDoctor(doctorAddress)\n        returns (\n            string memory name, \n            string memory birthDate, \n            string memory homeAddress, \n            string memory aesKey,\n            string memory role,\n            address[] memory patientsApproved,\n            address[] memory patientsPending\n        ) \n    {\n        User memory user = users[doctorAddress];\n        Doctor memory doctor = doctors[doctorAddress];\n\n        return (\n            user.name, \n            user.birthDate, \n            user.homeAddress, \n            user.aesKey,\n            user.role,\n            doctor.patients,\n            doctor.patientsPending\n        );\n    }\n\n    // Health Record CRUD Operations\n    function createHealthRecord(\n        address senderAddress,\n        address patientAddress,\n        string memory newRecordId,\n        string memory description,\n        string memory cid,\n        string memory recordType,\n        string memory createdAt\n    ) external onlyRegisteredPatient(patientAddress) {\n        require(\n            senderAddress == patientAddress || \n            (isDoctorRegistered[senderAddress] && doctorPermissions[patientAddress][senderAddress].canCreate), \n            \"Unauthorized access\"\n        );\n\n        patients[patientAddress].healthRecords.push(HealthRecord({\n            id: newRecordId,\n            description: description,\n            cid: cid,\n            creatorAddress: senderAddress,\n            recordType: recordType,\n            createdAt: createdAt,\n            isActive: true,\n            version: 1,\n            previousId: \"\"\n        }));\n\n        emit HealthRecordCreated(patientAddress, newRecordId);\n    }\n\n    function getHealthRecord(\n        address senderAddress,\n        address patientAddress, \n        string memory recordId\n    ) external view onlyRegisteredPatient(patientAddress) returns (HealthRecord memory) {\n        HealthRecord[] memory records = patients[patientAddress].healthRecords;\n        for (uint i = 0; i < records.length; i++) {\n            if (keccak256(bytes(records[i].id)) == keccak256(bytes(recordId))) {\n                require(\n                    senderAddress == patientAddress || \n                    senderAddress == records[i].creatorAddress || \n                    (isDoctorRegistered[senderAddress] && doctorPermissions[patientAddress][senderAddress].canRead),\n                    \"Unauthorized access\"\n                );\n                return records[i];\n            }\n        }\n        revert(\"Health record not found\");\n    }\n\n    function getHealthRecordsByAddress(address senderAddress, address patientAddress) \n        external \n        view \n        onlyRegisteredPatient(patientAddress) \n        returns (HealthRecord[] memory) \n    {\n        require(isDoctorRegistered[senderAddress] || senderAddress == patientAddress, \"Unauthorized access\");\n        return patients[patientAddress].healthRecords;\n    }\n\n    function updateHealthRecord(\n        address senderAddress,\n        address patientAddress, \n        string memory newRecordId,\n        string memory recordId, \n        string memory description, \n        string memory cid,\n        string memory recordType,\n        string memory createdAt\n    ) external onlyRegisteredPatient(patientAddress) {\n        require(\n            senderAddress == patientAddress || \n            (isDoctorRegistered[senderAddress] && doctorPermissions[patientAddress][senderAddress].canUpdate), \n            \"Unauthorized access\"\n        );\n\n        Patient storage patient = patients[patientAddress];\n        for (uint i = 0; i < patient.healthRecords.length; i++) {\n            if (keccak256(bytes(patient.healthRecords[i].id)) == keccak256(bytes(recordId))) {\n                // Archive old record\n                patient.oldHealthRecords.push(HealthRecord({\n                    id: recordId,\n                    description: patient.healthRecords[i].description,\n                    cid: patient.healthRecords[i].cid,\n                    creatorAddress: patient.healthRecords[i].creatorAddress,\n                    recordType: patient.healthRecords[i].recordType,\n                    createdAt: patient.healthRecords[i].createdAt,\n                    isActive: false,\n                    version: patient.healthRecords[i].version,\n                    previousId: patient.healthRecords[i].previousId\n                }));\n\n                // Update current record\n                patient.healthRecords[i] = HealthRecord({\n                    id: newRecordId,\n                    description: description,\n                    cid: cid,\n                    creatorAddress: senderAddress,\n                    recordType: recordType,\n                    createdAt: createdAt,\n                    isActive: true,\n                    version: patient.healthRecords[i].version + 1,\n                    previousId: recordId\n                });\n\n                emit HealthRecordUpdated(patientAddress, recordId);\n                return;\n            }\n        }\n        revert(\"Health record not found\");\n    }\n\n    function deleteHealthRecord(\n        address senderAddress,\n        address patientAddress, \n        string memory recordId\n    ) external onlyRegisteredPatient(patientAddress) {\n        require(\n            senderAddress == patientAddress || \n            (isDoctorRegistered[senderAddress] && doctorPermissions[patientAddress][senderAddress].canDelete), \n            \"Unauthorized access\"\n        );\n\n        HealthRecord[] storage records = patients[patientAddress].healthRecords;\n        for (uint i = 0; i < records.length; i++) {\n            if (keccak256(bytes(records[i].id)) == keccak256(bytes(recordId))) {\n                records[i].isActive = false;\n                emit HealthRecordDeleted(patientAddress, recordId);\n                return;\n            }\n        }\n        revert(\"Health record not found\");\n    }\n\n    function revertDeleteHealthRecord(\n        address senderAddress,\n        address patientAddress, \n        string memory recordId\n    ) external onlyRegisteredPatient(patientAddress) {\n        require(\n            senderAddress == patientAddress || \n            (isDoctorRegistered[senderAddress] && doctorPermissions[patientAddress][senderAddress].canDelete), \n            \"Unauthorized access\"\n        );\n\n        HealthRecord[] storage records = patients[patientAddress].healthRecords;\n        for (uint i = 0; i < records.length; i++) {\n            if (keccak256(bytes(records[i].id)) == keccak256(bytes(recordId))) {\n                records[i].isActive = true;\n                emit HealthRecordRevertDeleted(patientAddress, recordId);\n                return;\n            }\n        }\n        revert(\"Health record not found\");\n    }\n\n    // Permission Management\n    function permissionPatientGrantDoctor(\n        address senderAddress,\n        address doctorAddress, \n        bool canCreate, \n        bool canRead, \n        bool canUpdate, \n        bool canDelete\n    ) external onlyRegisteredPatient(senderAddress) onlyRegisteredDoctor(doctorAddress) {\n        _updateDoctorPermission(senderAddress, doctorAddress, canCreate, canRead, canUpdate, canDelete, true);\n        emit AccessApproved(senderAddress, doctorAddress, canCreate, canRead, canUpdate, canDelete);\n    }\n\n    function permissionPatientRevokeDoctor(\n        address senderAddress,\n        address doctorAddress\n    ) external onlyRegisteredPatient(senderAddress) onlyRegisteredDoctor(doctorAddress) {\n        _removeDoctorAccess(senderAddress, doctorAddress);\n        emit AccessApproved(senderAddress, doctorAddress, false, false, false, false);\n    }\n\n    function requestAccessDoctor(\n        address senderAddress,\n        address patientAddress, \n        bool canCreate, \n        bool canRead, \n        bool canUpdate, \n        bool canDelete\n    ) external onlyRegisteredDoctor(senderAddress) onlyRegisteredPatient(patientAddress) {\n        doctorRequestAccess[patientAddress][senderAddress] = Access({\n            isRequested: true,\n            canCreate: canCreate,\n            canRead: canRead,\n            canUpdate: canUpdate,\n            canDelete: canDelete\n        });\n\n        _addToPendingLists(patientAddress, senderAddress);\n        emit AccessRequested(patientAddress, senderAddress, canCreate, canRead, canUpdate, canDelete);\n    }\n\n    function requestAccessApproved(\n        address senderAddress,\n        address doctorAddress\n    ) external onlyRegisteredPatient(senderAddress) onlyRegisteredDoctor(doctorAddress) {\n        Access memory request = doctorRequestAccess[senderAddress][doctorAddress];\n        require(request.isRequested, \"Access request not found\");\n\n        _updateDoctorPermission(senderAddress, doctorAddress, \n            request.canCreate, request.canRead, request.canUpdate, request.canDelete, true);\n        emit AccessApproved(senderAddress, doctorAddress, \n            request.canCreate, request.canRead, request.canUpdate, request.canDelete);\n    }\n\n    function requestAccessDenied(\n        address senderAddress,\n        address doctorAddress\n    ) external onlyRegisteredPatient(senderAddress) onlyRegisteredDoctor(doctorAddress) {\n        require(doctorRequestAccess[senderAddress][doctorAddress].isRequested, \"Access request not found\");\n        \n        _removeFromPendingLists(senderAddress, doctorAddress);\n        delete doctorRequestAccess[senderAddress][doctorAddress];\n        emit AccessDenied(senderAddress, doctorAddress);\n    }\n\n    // Helper functions for permission management\n    function _updateDoctorPermission(\n        address patientAddress,\n        address doctorAddress,\n        bool canCreate,\n        bool canRead,\n        bool canUpdate,\n        bool canDelete,\n        bool addToApproved\n    ) private {\n        doctorPermissions[patientAddress][doctorAddress] = Access({\n            isRequested: true,\n            canCreate: canCreate,\n            canRead: canRead,\n            canUpdate: canUpdate,\n            canDelete: canDelete\n        });\n\n        if (addToApproved) {\n            _addToApprovedLists(patientAddress, doctorAddress);\n        }\n        _removeFromPendingLists(patientAddress, doctorAddress);\n    }\n\n    function _removeDoctorAccess(address patientAddress, address doctorAddress) private {\n        delete doctorPermissions[patientAddress][doctorAddress];\n        delete doctorRequestAccess[patientAddress][doctorAddress];\n        _removeFromApprovedLists(patientAddress, doctorAddress);\n        _removeFromPendingLists(patientAddress, doctorAddress);\n    }\n\n    function _addToApprovedLists(address patientAddress, address doctorAddress) private {\n        if (!_addressExists(patients[patientAddress].doctors, doctorAddress)) {\n            patients[patientAddress].doctors.push(doctorAddress);\n        }\n        if (!_addressExists(doctors[doctorAddress].patients, patientAddress)) {\n            doctors[doctorAddress].patients.push(patientAddress);\n        }\n    }\n\n    function _removeFromApprovedLists(address patientAddress, address doctorAddress) private {\n        _removeAddressFromArray(patients[patientAddress].doctors, doctorAddress);\n        _removeAddressFromArray(doctors[doctorAddress].patients, patientAddress);\n    }\n\n    function _addToPendingLists(address patientAddress, address doctorAddress) private {\n        if (!_addressExists(patients[patientAddress].doctorsPending, doctorAddress)) {\n            patients[patientAddress].doctorsPending.push(doctorAddress);\n        }\n        if (!_addressExists(doctors[doctorAddress].patientsPending, patientAddress)) {\n            doctors[doctorAddress].patientsPending.push(patientAddress);\n        }\n    }\n\n    function _removeFromPendingLists(address patientAddress, address doctorAddress) private {\n        _removeAddressFromArray(patients[patientAddress].doctorsPending, doctorAddress);\n        _removeAddressFromArray(doctors[doctorAddress].patientsPending, patientAddress);\n    }\n\n    // View functions for permissions\n    function getPatientDoctors(address patientAddress) \n        external \n        view \n        onlyRegisteredPatient(patientAddress)\n        returns (AccessResponse[] memory approved, AccessResponse[] memory pending) \n    {\n        return (_getAccessResponses(patients[patientAddress].doctors, patientAddress, true),\n                _getAccessResponses(patients[patientAddress].doctorsPending, patientAddress, false));\n    }\n\n    function getDoctorPatients(address doctorAddress) \n        external \n        view \n        onlyRegisteredDoctor(doctorAddress)\n        returns (AccessResponse[] memory approved, AccessResponse[] memory pending) \n    {\n        return (_getAccessResponses(doctors[doctorAddress].patients, doctorAddress, true),\n                _getAccessResponses(doctors[doctorAddress].patientsPending, doctorAddress, false));\n    }\n\n    function getDoctorPermission(address doctorAddress, address patientAddress) \n        external \n        view \n        onlyRegisteredPatient(patientAddress) \n        onlyRegisteredDoctor(doctorAddress)\n        returns (AccessResponse memory) \n    {\n        Access memory permission = doctorPermissions[patientAddress][doctorAddress];\n        require(permission.isRequested, \"Permission not found\");\n        \n        return AccessResponse({\n            userAddress: doctorAddress,\n            canCreate: permission.canCreate,\n            canRead: permission.canRead,\n            canUpdate: permission.canUpdate,\n            canDelete: permission.canDelete\n        });\n    }\n\n    // Utility functions\n    function _getAccessResponses(address[] memory addresses, address userAddress, bool isApproved) \n        private \n        view \n        returns (AccessResponse[] memory) \n    {\n        AccessResponse[] memory responses = new AccessResponse[](addresses.length);\n        for (uint i = 0; i < addresses.length; i++) {\n            Access memory access = isApproved \n                ? doctorPermissions[userAddress][addresses[i]] \n                : doctorRequestAccess[userAddress][addresses[i]];\n            \n            responses[i] = AccessResponse({\n                userAddress: addresses[i],\n                canCreate: access.canCreate,\n                canRead: access.canRead,\n                canUpdate: access.canUpdate,\n                canDelete: access.canDelete\n            });\n        }\n        return responses;\n    }\n\n    function _addressExists(address[] storage array, address addr) private view returns (bool) {\n        for (uint i = 0; i < array.length; i++) {\n            if (array[i] == addr) {\n                return true;\n            }\n        }\n        return false;\n    }\n\n    function _removeAddressFromArray(address[] storage array, address addr) private {\n        for (uint i = 0; i < array.length; i++) {\n            if (array[i] == addr) {\n                array[i] = array[array.length - 1];\n                array.pop();\n                return;\n            }\n        }\n    }\n\n    function addressToString(address addr) public pure returns (string memory) {\n        bytes memory addressBytes = abi.encodePacked(addr);\n        bytes memory hexChars = \"0123456789abcdef\";\n        bytes memory str = new bytes(42);\n\n        str[0] = '0';\n        str[1] = 'x';\n        for (uint i = 0; i < 20; i++) {\n            str[2 + i * 2] = hexChars[uint(uint8(addressBytes[i] >> 4))];\n            str[3 + i * 2] = hexChars[uint(uint8(addressBytes[i] & 0x0f))];\n        }\n        return string(str);\n    }\n\n    // Test function\n    function testSendTransaction(string memory message) external {\n        emit SendTest(msg.sender, message);\n    }\n}",
  "sourcePath": "C:\\Users\\ASUS\\Documents\\File Kuliah\\Semester 8\\Tugas Akhir\\Backend\\contracts\\StorageHealthRecords.sol",
  "compiler": {
    "name": "solc",
    "version": "0.8.19+commit.7dd6d404.Emscripten.clang"
  },
  "schemaVersion": "3.4.16",
  "updatedAt": "2025-06-10T07:00:45.679Z",
  "devdoc": {
    "kind": "dev",
    "methods": {},
    "version": 1
  },
  "userdoc": {
    "kind": "user",
    "methods": {},
    "version": 1
  }
}