{
  "contractName": "VerificationHealthRecords",
  "abi": [
    {
      "anonymous": false,
      "inputs": [
        {
          "indexed": false,
          "internalType": "address",
          "name": "creator",
          "type": "address"
        }
      ],
      "name": "AddedHealthRecordVerification",
      "type": "event"
    },
    {
      "anonymous": false,
      "inputs": [
        {
          "indexed": false,
          "internalType": "address",
          "name": "creator",
          "type": "address"
        },
        {
          "indexed": false,
          "internalType": "string",
          "name": "message",
          "type": "string"
        }
      ],
      "name": "SendTest",
      "type": "event"
    },
    {
      "inputs": [
        {
          "internalType": "string",
          "name": "id",
          "type": "string"
        },
        {
          "internalType": "address",
          "name": "ownerAddress",
          "type": "address"
        },
        {
          "internalType": "string",
          "name": "txHash",
          "type": "string"
        }
      ],
      "name": "addVerification",
      "outputs": [],
      "stateMutability": "nonpayable",
      "type": "function"
    },
    {
      "inputs": [
        {
          "internalType": "string",
          "name": "id",
          "type": "string"
        },
        {
          "internalType": "address",
          "name": "creator",
          "type": "address"
        }
      ],
      "name": "checkIsVerification",
      "outputs": [
        {
          "internalType": "bool",
          "name": "",
          "type": "bool"
        }
      ],
      "stateMutability": "view",
      "type": "function"
    },
    {
      "inputs": [
        {
          "internalType": "string",
          "name": "message",
          "type": "string"
        }
      ],
      "name": "testSendTransaction",
      "outputs": [],
      "stateMutability": "nonpayable",
      "type": "function"
    }
  ],
  "bytecode": "0x60808060405234610016576106f1908161001c8239f35b600080fdfe608060405260048036101561001357600080fd5b60003560e01c80632221f89b14610148578063a506b4f2146100cb5763f567ac7f1461003e57600080fd5b346100c65760203660031901126100c65780356001600160401b0381116100c6577fea444dd7122a2566183a7902fbb509c213d7483f822bb6b81bbf91381565c7e99161008d91369101610609565b60606040518092338252604060208301526100b78151809281604086015260208686019101610698565b601f01601f19168101030190a1005b600080fd5b50346100c65760403660031901126100c6578035906001600160401b0382116100c657610133602061010360ff938295369101610609565b6001600160a01b03610113610682565b166000526001825260406000208260405194838680955193849201610698565b82019081520301902054166040519015158152f35b50346100c65760603660031901126100c65780356001600160401b0381116100c6576101779036908301610609565b90610180610682565b906044356001600160401b0381116100c65761019f9036908301610609565b33600052600160205260ff60406000206020604051809288516101c58184868d01610698565b82019081520301902054166105cc57336000526000602052604060002090604051936060850185811060018060401b0382111761058d5760409081528686526001600160a01b03919091166020860152840152805490600160401b8210156105b757600182018082558210156105a257600052602060002090835180519060018060401b03821161058d5760038302840154600181811c91168015610583575b602082101461056e57601f8111610521575b50602090601f83116001146104a75792826040959360039360029660009261049c575b50508160011b9160001990851b1c1916178282028401555b600182820284010160018060a01b0360208901511660018060a01b031982541617905502010192015180519160018060401b03831161048757835490600182811c9216801561047d575b60208310146104685750601f8111610420575b50602090601f83116001146103b15791806020949261036696946000926103a6575b50508160011b916000199060031b1c19161790555b336000526001825260406000208260405194838680955193849201610698565b820190815203019020600160ff198254161790557f385cdb07e69bed1f70f3d0b9a8b29228db4d5a0b125203028ccf2abe1cbf27f56020604051338152a1005b015190503880610331565b90601f198316918460005260206000209260005b8181106104085750926001928592610366989660209896106103ef575b505050811b019055610346565b015160001960f88460031b161c191690553880806103e2565b929360206001819287860151815501950193016103c5565b836000526020600020601f840160051c8101916020851061045e575b601f0160051c01905b818110610452575061030f565b60008155600101610445565b909150819061043c565b602290634e487b7160e01b6000525260246000fd5b91607f16916102fc565b604190634e487b7160e01b6000525260246000fd5b01519050388061029a565b9060038402850160005260206000209160005b601f19851681106105095750836003936002969360019360409997601f198116106104f1575b505050811b018282028401556102b2565b015160001983871b60f8161c191690553880806104e0565b919260206001819286850151815501940192016104ba565b6003840285016000526020600020601f840160051c81019160208510610564575b601f0160051c01905b8181106105585750610277565b6000815560010161054b565b9091508190610542565b602286634e487b7160e01b6000525260246000fd5b90607f1690610265565b604185634e487b7160e01b6000525260246000fd5b603283634e487b7160e01b6000525260246000fd5b604183634e487b7160e01b6000525260246000fd5b60405162461bcd60e51b815260208184015260166024820152754944207375646168207465727665726966696b61736960501b6044820152606490fd5b81601f820112156100c6576001600160401b03918135919083831161066c5760405193601f8401601f19908116603f011685019081118582101761066c57604052828452602083830101116100c657816000926020809301838601378301015290565b634e487b7160e01b600052604160045260246000fd5b602435906001600160a01b03821682036100c657565b60005b8381106106ab5750506000910152565b818101518382015260200161069b56fea264697066735822122021d320b568bcaad85b43130cdb9d8b13ec7ef7020c916971423a157957f1fbf964736f6c63430008130033",
  "immutableReferences": {},
  "source": "// SPDX-License-Identifier: MIT\npragma solidity ^0.8.19;\n\ncontract VerificationHealthRecords {\n    // Data untuk catatan kesehatan\n    struct HealthRecordVerification {\n        string id;       // id catatan kesehatan\n        address owner;   // address pemilik catatan kesehatan\n        string txHash;   // hash transaksi\n    }\n\n    struct SenderVerification {\n        HealthRecordVerification[] verifications;\n    }\n    \n    // Events\n    event AddedHealthRecordVerification(address creator); \n\n    // Mapping\n    mapping(address => SenderVerification) private senderVerifications;\n    mapping(address => mapping(string => bool)) private isVerification;\n\n    // Melakukan pendaftaran user\n    function addVerification(\n        string memory id, \n        address ownerAddress,\n        string memory txHash\n    ) public {\n        require(!isVerification[msg.sender][id], \"ID sudah terverifikasi\");\n        // Periksa apakah pengirim adalah creator\n\n        senderVerifications[msg.sender].verifications.push(\n            HealthRecordVerification({\n                id: id,\n                owner: ownerAddress,\n                txHash: txHash\n            })\n        );\n\n        isVerification[msg.sender][id] = true;\n\n        emit AddedHealthRecordVerification(msg.sender);\n    }\n\n    // Periksa apakah ID sudah terverifikasi\n    function checkIsVerification(string memory id, address creator) public view returns (bool) {\n        return isVerification[creator][id];\n    }\n\n    // Fungsi ini hanya untuk tujuan pengujian\n    event SendTest(address creator, string message); \n    function testSendTransaction(string memory message) public {\n        emit SendTest(msg.sender, message);\n    }\n}\n",
  "sourcePath": "C:\\Users\\ASUS\\Documents\\File Kuliah\\Semester 8\\Tugas Akhir\\Backend\\contracts\\VerificationHealthRecords.sol",
  "compiler": {
    "name": "solc",
    "version": "0.8.19+commit.7dd6d404.Emscripten.clang"
  },
  "schemaVersion": "3.4.16",
  "updatedAt": "2025-06-10T07:00:45.697Z",
  "devdoc": {
    "kind": "dev",
    "methods": {},
    "version": 1
  },
  "userdoc": {
    "kind": "user",
    "methods": {},
    "version": 1
  }
}